{
  "contractName": "GifticonNFT",
  "abi": [
    {
      "inputs": [],
      "stateMutability": "nonpayable",
      "type": "constructor"
    },
    {
      "inputs": [
        {
          "internalType": "address",
          "name": "sender",
          "type": "address"
        },
        {
          "internalType": "uint256",
          "name": "balance",
          "type": "uint256"
        },
        {
          "internalType": "uint256",
          "name": "needed",
          "type": "uint256"
        },
        {
          "internalType": "uint256",
          "name": "tokenId",
          "type": "uint256"
        }
      ],
      "name": "ERC1155InsufficientBalance",
      "type": "error"
    },
    {
      "inputs": [
        {
          "internalType": "address",
          "name": "approver",
          "type": "address"
        }
      ],
      "name": "ERC1155InvalidApprover",
      "type": "error"
    },
    {
      "inputs": [
        {
          "internalType": "uint256",
          "name": "idsLength",
          "type": "uint256"
        },
        {
          "internalType": "uint256",
          "name": "valuesLength",
          "type": "uint256"
        }
      ],
      "name": "ERC1155InvalidArrayLength",
      "type": "error"
    },
    {
      "inputs": [
        {
          "internalType": "address",
          "name": "operator",
          "type": "address"
        }
      ],
      "name": "ERC1155InvalidOperator",
      "type": "error"
    },
    {
      "inputs": [
        {
          "internalType": "address",
          "name": "receiver",
          "type": "address"
        }
      ],
      "name": "ERC1155InvalidReceiver",
      "type": "error"
    },
    {
      "inputs": [
        {
          "internalType": "address",
          "name": "sender",
          "type": "address"
        }
      ],
      "name": "ERC1155InvalidSender",
      "type": "error"
    },
    {
      "inputs": [
        {
          "internalType": "address",
          "name": "operator",
          "type": "address"
        },
        {
          "internalType": "address",
          "name": "owner",
          "type": "address"
        }
      ],
      "name": "ERC1155MissingApprovalForAll",
      "type": "error"
    },
    {
      "inputs": [
        {
          "internalType": "address",
          "name": "owner",
          "type": "address"
        }
      ],
      "name": "OwnableInvalidOwner",
      "type": "error"
    },
    {
      "inputs": [
        {
          "internalType": "address",
          "name": "account",
          "type": "address"
        }
      ],
      "name": "OwnableUnauthorizedAccount",
      "type": "error"
    },
    {
      "anonymous": false,
      "inputs": [
        {
          "indexed": true,
          "internalType": "address",
          "name": "account",
          "type": "address"
        },
        {
          "indexed": true,
          "internalType": "address",
          "name": "operator",
          "type": "address"
        },
        {
          "indexed": false,
          "internalType": "bool",
          "name": "approved",
          "type": "bool"
        }
      ],
      "name": "ApprovalForAll",
      "type": "event"
    },
    {
      "anonymous": false,
      "inputs": [
        {
          "indexed": true,
          "internalType": "address",
          "name": "previousOwner",
          "type": "address"
        },
        {
          "indexed": true,
          "internalType": "address",
          "name": "newOwner",
          "type": "address"
        }
      ],
      "name": "OwnershipTransferred",
      "type": "event"
    },
    {
      "anonymous": false,
      "inputs": [
        {
          "indexed": true,
          "internalType": "address",
          "name": "operator",
          "type": "address"
        },
        {
          "indexed": true,
          "internalType": "address",
          "name": "from",
          "type": "address"
        },
        {
          "indexed": true,
          "internalType": "address",
          "name": "to",
          "type": "address"
        },
        {
          "indexed": false,
          "internalType": "uint256[]",
          "name": "ids",
          "type": "uint256[]"
        },
        {
          "indexed": false,
          "internalType": "uint256[]",
          "name": "values",
          "type": "uint256[]"
        }
      ],
      "name": "TransferBatch",
      "type": "event"
    },
    {
      "anonymous": false,
      "inputs": [
        {
          "indexed": true,
          "internalType": "address",
          "name": "operator",
          "type": "address"
        },
        {
          "indexed": true,
          "internalType": "address",
          "name": "from",
          "type": "address"
        },
        {
          "indexed": true,
          "internalType": "address",
          "name": "to",
          "type": "address"
        },
        {
          "indexed": false,
          "internalType": "uint256",
          "name": "id",
          "type": "uint256"
        },
        {
          "indexed": false,
          "internalType": "uint256",
          "name": "value",
          "type": "uint256"
        }
      ],
      "name": "TransferSingle",
      "type": "event"
    },
    {
      "anonymous": false,
      "inputs": [
        {
          "indexed": false,
          "internalType": "string",
          "name": "value",
          "type": "string"
        },
        {
          "indexed": true,
          "internalType": "uint256",
          "name": "id",
          "type": "uint256"
        }
      ],
      "name": "URI",
      "type": "event"
    },
    {
      "inputs": [
        {
          "internalType": "address",
          "name": "account",
          "type": "address"
        },
        {
          "internalType": "uint256",
          "name": "id",
          "type": "uint256"
        }
      ],
      "name": "balanceOf",
      "outputs": [
        {
          "internalType": "uint256",
          "name": "",
          "type": "uint256"
        }
      ],
      "stateMutability": "view",
      "type": "function"
    },
    {
      "inputs": [
        {
          "internalType": "address[]",
          "name": "accounts",
          "type": "address[]"
        },
        {
          "internalType": "uint256[]",
          "name": "ids",
          "type": "uint256[]"
        }
      ],
      "name": "balanceOfBatch",
      "outputs": [
        {
          "internalType": "uint256[]",
          "name": "",
          "type": "uint256[]"
        }
      ],
      "stateMutability": "view",
      "type": "function"
    },
    {
      "inputs": [
        {
          "internalType": "uint256",
          "name": "",
          "type": "uint256"
        }
      ],
      "name": "gifticons",
      "outputs": [
        {
          "internalType": "string",
          "name": "name",
          "type": "string"
        },
        {
          "internalType": "string",
          "name": "description",
          "type": "string"
        },
        {
          "internalType": "string",
          "name": "imageURL",
          "type": "string"
        },
        {
          "internalType": "uint256",
          "name": "expiryDate",
          "type": "uint256"
        },
        {
          "internalType": "bool",
          "name": "isRedeemed",
          "type": "bool"
        }
      ],
      "stateMutability": "view",
      "type": "function"
    },
    {
      "inputs": [
        {
          "internalType": "address",
          "name": "account",
          "type": "address"
        },
        {
          "internalType": "address",
          "name": "operator",
          "type": "address"
        }
      ],
      "name": "isApprovedForAll",
      "outputs": [
        {
          "internalType": "bool",
          "name": "",
          "type": "bool"
        }
      ],
      "stateMutability": "view",
      "type": "function"
    },
    {
      "inputs": [],
      "name": "owner",
      "outputs": [
        {
          "internalType": "address",
          "name": "",
          "type": "address"
        }
      ],
      "stateMutability": "view",
      "type": "function"
    },
    {
      "inputs": [],
      "name": "renounceOwnership",
      "outputs": [],
      "stateMutability": "nonpayable",
      "type": "function"
    },
    {
      "inputs": [
        {
          "internalType": "address",
          "name": "from",
          "type": "address"
        },
        {
          "internalType": "address",
          "name": "to",
          "type": "address"
        },
        {
          "internalType": "uint256[]",
          "name": "ids",
          "type": "uint256[]"
        },
        {
          "internalType": "uint256[]",
          "name": "values",
          "type": "uint256[]"
        },
        {
          "internalType": "bytes",
          "name": "data",
          "type": "bytes"
        }
      ],
      "name": "safeBatchTransferFrom",
      "outputs": [],
      "stateMutability": "nonpayable",
      "type": "function"
    },
    {
      "inputs": [
        {
          "internalType": "address",
          "name": "from",
          "type": "address"
        },
        {
          "internalType": "address",
          "name": "to",
          "type": "address"
        },
        {
          "internalType": "uint256",
          "name": "id",
          "type": "uint256"
        },
        {
          "internalType": "uint256",
          "name": "value",
          "type": "uint256"
        },
        {
          "internalType": "bytes",
          "name": "data",
          "type": "bytes"
        }
      ],
      "name": "safeTransferFrom",
      "outputs": [],
      "stateMutability": "nonpayable",
      "type": "function"
    },
    {
      "inputs": [
        {
          "internalType": "address",
          "name": "operator",
          "type": "address"
        },
        {
          "internalType": "bool",
          "name": "approved",
          "type": "bool"
        }
      ],
      "name": "setApprovalForAll",
      "outputs": [],
      "stateMutability": "nonpayable",
      "type": "function"
    },
    {
      "inputs": [
        {
          "internalType": "bytes4",
          "name": "interfaceId",
          "type": "bytes4"
        }
      ],
      "name": "supportsInterface",
      "outputs": [
        {
          "internalType": "bool",
          "name": "",
          "type": "bool"
        }
      ],
      "stateMutability": "view",
      "type": "function"
    },
    {
      "inputs": [
        {
          "internalType": "address",
          "name": "newOwner",
          "type": "address"
        }
      ],
      "name": "transferOwnership",
      "outputs": [],
      "stateMutability": "nonpayable",
      "type": "function"
    },
    {
      "inputs": [
        {
          "internalType": "uint256",
          "name": "",
          "type": "uint256"
        }
      ],
      "name": "uri",
      "outputs": [
        {
          "internalType": "string",
          "name": "",
          "type": "string"
        }
      ],
      "stateMutability": "view",
      "type": "function"
    },
    {
      "inputs": [
        {
          "internalType": "address",
          "name": "account",
          "type": "address"
        },
        {
          "internalType": "uint256",
          "name": "id",
          "type": "uint256"
        },
        {
          "internalType": "string",
          "name": "name",
          "type": "string"
        },
        {
          "internalType": "string",
          "name": "description",
          "type": "string"
        },
        {
          "internalType": "string",
          "name": "imageURL",
          "type": "string"
        },
        {
          "internalType": "uint256",
          "name": "expiryDate",
          "type": "uint256"
        }
      ],
      "name": "mint",
      "outputs": [],
      "stateMutability": "nonpayable",
      "type": "function"
    },
    {
      "inputs": [
        {
          "internalType": "uint256",
          "name": "id",
          "type": "uint256"
        }
      ],
      "name": "getGifticon",
      "outputs": [
        {
          "components": [
            {
              "internalType": "string",
              "name": "name",
              "type": "string"
            },
            {
              "internalType": "string",
              "name": "description",
              "type": "string"
            },
            {
              "internalType": "string",
              "name": "imageURL",
              "type": "string"
            },
            {
              "internalType": "uint256",
              "name": "expiryDate",
              "type": "uint256"
            },
            {
              "internalType": "bool",
              "name": "isRedeemed",
              "type": "bool"
            }
          ],
          "internalType": "struct GifticonNFT.Gifticon",
          "name": "",
          "type": "tuple"
        }
      ],
      "stateMutability": "view",
      "type": "function"
    }
  ],
  "bytecode": "0x608060405234801562000010575f80fd5b5033604051806060016040528060278152602001620032a3602791396200003d81620000c960201b60201c565b505f73ffffffffffffffffffffffffffffffffffffffff168173ffffffffffffffffffffffffffffffffffffffff1603620000b1575f6040517f1e4fbdf7000000000000000000000000000000000000000000000000000000008152600401620000a89190620001e4565b60405180910390fd5b620000c281620000de60201b60201c565b5062000547565b8060029081620000da919062000463565b5050565b5f60035f9054906101000a900473ffffffffffffffffffffffffffffffffffffffff1690508160035f6101000a81548173ffffffffffffffffffffffffffffffffffffffff021916908373ffffffffffffffffffffffffffffffffffffffff1602179055508173ffffffffffffffffffffffffffffffffffffffff168173ffffffffffffffffffffffffffffffffffffffff167f8be0079c531659141344cd1fd0a4f28419497f9722a3daafe3b4186f6b6457e060405160405180910390a35050565b5f73ffffffffffffffffffffffffffffffffffffffff82169050919050565b5f620001cc82620001a1565b9050919050565b620001de81620001c0565b82525050565b5f602082019050620001f95f830184620001d3565b92915050565b5f81519050919050565b7f4e487b71000000000000000000000000000000000000000000000000000000005f52604160045260245ffd5b7f4e487b71000000000000000000000000000000000000000000000000000000005f52602260045260245ffd5b5f60028204905060018216806200027b57607f821691505b60208210810362000291576200029062000236565b5b50919050565b5f819050815f5260205f209050919050565b5f6020601f8301049050919050565b5f82821b905092915050565b5f60088302620002f57fffffffffffffffffffffffffffffffffffffffffffffffffffffffffffffffff82620002b8565b620003018683620002b8565b95508019841693508086168417925050509392505050565b5f819050919050565b5f819050919050565b5f6200034b620003456200033f8462000319565b62000322565b62000319565b9050919050565b5f819050919050565b62000366836200032b565b6200037e620003758262000352565b848454620002c4565b825550505050565b5f90565b6200039462000386565b620003a18184846200035b565b505050565b5b81811015620003c857620003bc5f826200038a565b600181019050620003a7565b5050565b601f8211156200041757620003e18162000297565b620003ec84620002a9565b81016020851015620003fc578190505b620004146200040b85620002a9565b830182620003a6565b50505b505050565b5f82821c905092915050565b5f620004395f19846008026200041c565b1980831691505092915050565b5f62000453838362000428565b9150826002028217905092915050565b6200046e82620001ff565b67ffffffffffffffff8111156200048a576200048962000209565b5b62000496825462000263565b620004a3828285620003cc565b5f60209050601f831160018114620004d9575f8415620004c4578287015190505b620004d0858262000446565b8655506200053f565b601f198416620004e98662000297565b5f5b828110156200051257848901518255600182019150602085019450602081019050620004eb565b868310156200053257848901516200052e601f89168262000428565b8355505b6001600288020188555050505b505050505050565b612d4e80620005555f395ff3fe608060405234801561000f575f80fd5b50600436106100e7575f3560e01c80638da5cb5b1161008a578063e985e9c511610064578063e985e9c514610257578063ea69236c14610287578063f242432a146102bb578063f2fde38b146102d7576100e7565b80638da5cb5b146101ed5780639f22fa1a1461020b578063a22cb4651461023b576100e7565b80632eb2c2d6116100c65780632eb2c2d61461017b5780634e1273f41461019757806355fbf8e7146101c7578063715018a6146101e3576100e7565b8062fdd58e146100eb57806301ffc9a71461011b5780630e89341c1461014b575b5f80fd5b61010560048036038101906101009190611be3565b6102f3565b6040516101129190611c30565b60405180910390f35b61013560048036038101906101309190611c9e565b610348565b6040516101429190611ce3565b60405180910390f35b61016560048036038101906101609190611cfc565b610429565b6040516101729190611db1565b60405180910390f35b61019560048036038101906101909190611fc1565b6104bb565b005b6101b160048036038101906101ac919061214c565b610562565b6040516101be9190612279565b60405180910390f35b6101e160048036038101906101dc9190612337565b61066f565b005b6101eb610796565b005b6101f56107a9565b6040516102029190612423565b60405180910390f35b61022560048036038101906102209190611cfc565b6107d1565b6040516102329190612514565b60405180910390f35b6102556004803603810190610250919061255e565b6109cf565b005b610271600480360381019061026c919061259c565b6109e5565b60405161027e9190611ce3565b60405180910390f35b6102a1600480360381019061029c9190611cfc565b610a73565b6040516102b29594939291906125da565b60405180910390f35b6102d560048036038101906102d09190612640565b610c43565b005b6102f160048036038101906102ec91906126d3565b610cea565b005b5f805f8381526020019081526020015f205f8473ffffffffffffffffffffffffffffffffffffffff1673ffffffffffffffffffffffffffffffffffffffff1681526020019081526020015f2054905092915050565b5f7fd9b67a26000000000000000000000000000000000000000000000000000000007bffffffffffffffffffffffffffffffffffffffffffffffffffffffff1916827bffffffffffffffffffffffffffffffffffffffffffffffffffffffff1916148061041257507f0e89341c000000000000000000000000000000000000000000000000000000007bffffffffffffffffffffffffffffffffffffffffffffffffffffffff1916827bffffffffffffffffffffffffffffffffffffffffffffffffffffffff1916145b80610422575061042182610d6e565b5b9050919050565b6060600280546104389061272b565b80601f01602080910402602001604051908101604052809291908181526020018280546104649061272b565b80156104af5780601f10610486576101008083540402835291602001916104af565b820191905f5260205f20905b81548152906001019060200180831161049257829003601f168201915b50505050509050919050565b5f6104c4610dd7565b90508073ffffffffffffffffffffffffffffffffffffffff168673ffffffffffffffffffffffffffffffffffffffff1614158015610509575061050786826109e5565b155b1561054d5780866040517fe237d92200000000000000000000000000000000000000000000000000000000815260040161054492919061275b565b60405180910390fd5b61055a8686868686610dde565b505050505050565b606081518351146105ae57815183516040517f5b0599910000000000000000000000000000000000000000000000000000000081526004016105a5929190612782565b60405180910390fd5b5f835167ffffffffffffffff8111156105ca576105c9611dd5565b5b6040519080825280602002602001820160405280156105f85781602001602082028036833780820191505090505b5090505f5b84518110156106645761063461061c8287610ed290919063ffffffff16565b61062f8387610ee590919063ffffffff16565b6102f3565b828281518110610647576106466127a9565b5b6020026020010181815250508061065d90612803565b90506105fd565b508091505092915050565b610677610ef8565b5f60045f8781526020019081526020015f2060030154146106cd576040517f08c379a00000000000000000000000000000000000000000000000000000000081526004016106c490612894565b60405180910390fd5b6106e88686600160405180602001604052805f815250610f7f565b6040518060a001604052808581526020018481526020018381526020018281526020015f151581525060045f8781526020019081526020015f205f820151815f0190816107359190612a4f565b50602082015181600101908161074b9190612a4f565b5060408201518160020190816107619190612a4f565b50606082015181600301556080820151816004015f6101000a81548160ff021916908315150217905550905050505050505050565b61079e610ef8565b6107a75f611014565b565b5f60035f9054906101000a900473ffffffffffffffffffffffffffffffffffffffff16905090565b6107d9611b16565b60045f8381526020019081526020015f206040518060a00160405290815f820180546108049061272b565b80601f01602080910402602001604051908101604052809291908181526020018280546108309061272b565b801561087b5780601f106108525761010080835404028352916020019161087b565b820191905f5260205f20905b81548152906001019060200180831161085e57829003601f168201915b505050505081526020016001820180546108949061272b565b80601f01602080910402602001604051908101604052809291908181526020018280546108c09061272b565b801561090b5780601f106108e25761010080835404028352916020019161090b565b820191905f5260205f20905b8154815290600101906020018083116108ee57829003601f168201915b505050505081526020016002820180546109249061272b565b80601f01602080910402602001604051908101604052809291908181526020018280546109509061272b565b801561099b5780601f106109725761010080835404028352916020019161099b565b820191905f5260205f20905b81548152906001019060200180831161097e57829003601f168201915b5050505050815260200160038201548152602001600482015f9054906101000a900460ff1615151515815250509050919050565b6109e16109da610dd7565b83836110d7565b5050565b5f60015f8473ffffffffffffffffffffffffffffffffffffffff1673ffffffffffffffffffffffffffffffffffffffff1681526020019081526020015f205f8373ffffffffffffffffffffffffffffffffffffffff1673ffffffffffffffffffffffffffffffffffffffff1681526020019081526020015f205f9054906101000a900460ff16905092915050565b6004602052805f5260405f205f91509050805f018054610a929061272b565b80601f0160208091040260200160405190810160405280929190818152602001828054610abe9061272b565b8015610b095780601f10610ae057610100808354040283529160200191610b09565b820191905f5260205f20905b815481529060010190602001808311610aec57829003601f168201915b505050505090806001018054610b1e9061272b565b80601f0160208091040260200160405190810160405280929190818152602001828054610b4a9061272b565b8015610b955780601f10610b6c57610100808354040283529160200191610b95565b820191905f5260205f20905b815481529060010190602001808311610b7857829003601f168201915b505050505090806002018054610baa9061272b565b80601f0160208091040260200160405190810160405280929190818152602001828054610bd69061272b565b8015610c215780601f10610bf857610100808354040283529160200191610c21565b820191905f5260205f20905b815481529060010190602001808311610c0457829003601f168201915b505050505090806003015490806004015f9054906101000a900460ff16905085565b5f610c4c610dd7565b90508073ffffffffffffffffffffffffffffffffffffffff168673ffffffffffffffffffffffffffffffffffffffff1614158015610c915750610c8f86826109e5565b155b15610cd55780866040517fe237d922000000000000000000000000000000000000000000000000000000008152600401610ccc92919061275b565b60405180910390fd5b610ce28686868686611240565b505050505050565b610cf2610ef8565b5f73ffffffffffffffffffffffffffffffffffffffff168173ffffffffffffffffffffffffffffffffffffffff1603610d62575f6040517f1e4fbdf7000000000000000000000000000000000000000000000000000000008152600401610d599190612423565b60405180910390fd5b610d6b81611014565b50565b5f7f01ffc9a7000000000000000000000000000000000000000000000000000000007bffffffffffffffffffffffffffffffffffffffffffffffffffffffff1916827bffffffffffffffffffffffffffffffffffffffffffffffffffffffff1916149050919050565b5f33905090565b5f73ffffffffffffffffffffffffffffffffffffffff168473ffffffffffffffffffffffffffffffffffffffff1603610e4e575f6040517f57f447ce000000000000000000000000000000000000000000000000000000008152600401610e459190612423565b60405180910390fd5b5f73ffffffffffffffffffffffffffffffffffffffff168573ffffffffffffffffffffffffffffffffffffffff1603610ebe575f6040517f01a83514000000000000000000000000000000000000000000000000000000008152600401610eb59190612423565b60405180910390fd5b610ecb8585858585611346565b5050505050565b5f60208202602084010151905092915050565b5f60208202602084010151905092915050565b610f00610dd7565b73ffffffffffffffffffffffffffffffffffffffff16610f1e6107a9565b73ffffffffffffffffffffffffffffffffffffffff1614610f7d57610f41610dd7565b6040517f118cdaa7000000000000000000000000000000000000000000000000000000008152600401610f749190612423565b60405180910390fd5b565b5f73ffffffffffffffffffffffffffffffffffffffff168473ffffffffffffffffffffffffffffffffffffffff1603610fef575f6040517f57f447ce000000000000000000000000000000000000000000000000000000008152600401610fe69190612423565b60405180910390fd5b5f80610ffb85856113f2565b9150915061100c5f87848487611346565b505050505050565b5f60035f9054906101000a900473ffffffffffffffffffffffffffffffffffffffff1690508160035f6101000a81548173ffffffffffffffffffffffffffffffffffffffff021916908373ffffffffffffffffffffffffffffffffffffffff1602179055508173ffffffffffffffffffffffffffffffffffffffff168173ffffffffffffffffffffffffffffffffffffffff167f8be0079c531659141344cd1fd0a4f28419497f9722a3daafe3b4186f6b6457e060405160405180910390a35050565b5f73ffffffffffffffffffffffffffffffffffffffff168273ffffffffffffffffffffffffffffffffffffffff1603611147575f6040517fced3e10000000000000000000000000000000000000000000000000000000000815260040161113e9190612423565b60405180910390fd5b8060015f8573ffffffffffffffffffffffffffffffffffffffff1673ffffffffffffffffffffffffffffffffffffffff1681526020019081526020015f205f8473ffffffffffffffffffffffffffffffffffffffff1673ffffffffffffffffffffffffffffffffffffffff1681526020019081526020015f205f6101000a81548160ff0219169083151502179055508173ffffffffffffffffffffffffffffffffffffffff168373ffffffffffffffffffffffffffffffffffffffff167f17307eab39ab6107e8899845ad3d59bd9653f200f220920489ca2b5937696c31836040516112339190611ce3565b60405180910390a3505050565b5f73ffffffffffffffffffffffffffffffffffffffff168473ffffffffffffffffffffffffffffffffffffffff16036112b0575f6040517f57f447ce0000000000000000000000000000000000000000000000000000000081526004016112a79190612423565b60405180910390fd5b5f73ffffffffffffffffffffffffffffffffffffffff168573ffffffffffffffffffffffffffffffffffffffff1603611320575f6040517f01a835140000000000000000000000000000000000000000000000000000000081526004016113179190612423565b60405180910390fd5b5f8061132c85856113f2565b9150915061133d8787848487611346565b50505050505050565b61135285858585611422565b5f73ffffffffffffffffffffffffffffffffffffffff168473ffffffffffffffffffffffffffffffffffffffff16146113eb575f61138e610dd7565b905060018451036113da575f6113ad5f86610ee590919063ffffffff16565b90505f6113c35f86610ee590919063ffffffff16565b90506113d38389898585896117b8565b50506113e9565b6113e8818787878787611967565b5b505b5050505050565b60608060405191506001825283602083015260408201905060018152826020820152604081016040529250929050565b805182511461146c57815181516040517f5b059991000000000000000000000000000000000000000000000000000000008152600401611463929190612782565b60405180910390fd5b5f611475610dd7565b90505f5b8351811015611677575f6114968286610ee590919063ffffffff16565b90505f6114ac8386610ee590919063ffffffff16565b90505f73ffffffffffffffffffffffffffffffffffffffff168873ffffffffffffffffffffffffffffffffffffffff16146115cf575f805f8481526020019081526020015f205f8a73ffffffffffffffffffffffffffffffffffffffff1673ffffffffffffffffffffffffffffffffffffffff1681526020019081526020015f205490508181101561157b57888183856040517f03dee4c50000000000000000000000000000000000000000000000000000000081526004016115729493929190612b1e565b60405180910390fd5b8181035f808581526020019081526020015f205f8b73ffffffffffffffffffffffffffffffffffffffff1673ffffffffffffffffffffffffffffffffffffffff1681526020019081526020015f2081905550505b5f73ffffffffffffffffffffffffffffffffffffffff168773ffffffffffffffffffffffffffffffffffffffff161461166457805f808481526020019081526020015f205f8973ffffffffffffffffffffffffffffffffffffffff1673ffffffffffffffffffffffffffffffffffffffff1681526020019081526020015f205f82825461165c9190612b61565b925050819055505b50508061167090612803565b9050611479565b506001835103611732575f6116955f85610ee590919063ffffffff16565b90505f6116ab5f85610ee590919063ffffffff16565b90508573ffffffffffffffffffffffffffffffffffffffff168773ffffffffffffffffffffffffffffffffffffffff168473ffffffffffffffffffffffffffffffffffffffff167fc3d58168c5ae7397731d063d5bbf3d657854427343f4c083240f7aacaa2d0f628585604051611723929190612782565b60405180910390a450506117b1565b8373ffffffffffffffffffffffffffffffffffffffff168573ffffffffffffffffffffffffffffffffffffffff168273ffffffffffffffffffffffffffffffffffffffff167f4a39dc06d4c0dbc64b70af90fd698a233a518aa5d07e595d983b8c0526c8f7fb86866040516117a8929190612b94565b60405180910390a45b5050505050565b5f8473ffffffffffffffffffffffffffffffffffffffff163b111561195f578373ffffffffffffffffffffffffffffffffffffffff1663f23a6e6187878686866040518663ffffffff1660e01b8152600401611818959493929190612c1b565b6020604051808303815f875af192505050801561185357506040513d601f19601f820116820180604052508101906118509190612c87565b60015b6118d4573d805f8114611881576040519150601f19603f3d011682016040523d82523d5f602084013e611886565b606091505b505f8151036118cc57846040517f57f447ce0000000000000000000000000000000000000000000000000000000081526004016118c39190612423565b60405180910390fd5b805181602001fd5b63f23a6e6160e01b7bffffffffffffffffffffffffffffffffffffffffffffffffffffffff1916817bffffffffffffffffffffffffffffffffffffffffffffffffffffffff19161461195d57846040517f57f447ce0000000000000000000000000000000000000000000000000000000081526004016119549190612423565b60405180910390fd5b505b505050505050565b5f8473ffffffffffffffffffffffffffffffffffffffff163b1115611b0e578373ffffffffffffffffffffffffffffffffffffffff1663bc197c8187878686866040518663ffffffff1660e01b81526004016119c7959493929190612cb2565b6020604051808303815f875af1925050508015611a0257506040513d601f19601f820116820180604052508101906119ff9190612c87565b60015b611a83573d805f8114611a30576040519150601f19603f3d011682016040523d82523d5f602084013e611a35565b606091505b505f815103611a7b57846040517f57f447ce000000000000000000000000000000000000000000000000000000008152600401611a729190612423565b60405180910390fd5b805181602001fd5b63bc197c8160e01b7bffffffffffffffffffffffffffffffffffffffffffffffffffffffff1916817bffffffffffffffffffffffffffffffffffffffffffffffffffffffff191614611b0c57846040517f57f447ce000000000000000000000000000000000000000000000000000000008152600401611b039190612423565b60405180910390fd5b505b505050505050565b6040518060a001604052806060815260200160608152602001606081526020015f81526020015f151581525090565b5f604051905090565b5f80fd5b5f80fd5b5f73ffffffffffffffffffffffffffffffffffffffff82169050919050565b5f611b7f82611b56565b9050919050565b611b8f81611b75565b8114611b99575f80fd5b50565b5f81359050611baa81611b86565b92915050565b5f819050919050565b611bc281611bb0565b8114611bcc575f80fd5b50565b5f81359050611bdd81611bb9565b92915050565b5f8060408385031215611bf957611bf8611b4e565b5b5f611c0685828601611b9c565b9250506020611c1785828601611bcf565b9150509250929050565b611c2a81611bb0565b82525050565b5f602082019050611c435f830184611c21565b92915050565b5f7fffffffff0000000000000000000000000000000000000000000000000000000082169050919050565b611c7d81611c49565b8114611c87575f80fd5b50565b5f81359050611c9881611c74565b92915050565b5f60208284031215611cb357611cb2611b4e565b5b5f611cc084828501611c8a565b91505092915050565b5f8115159050919050565b611cdd81611cc9565b82525050565b5f602082019050611cf65f830184611cd4565b92915050565b5f60208284031215611d1157611d10611b4e565b5b5f611d1e84828501611bcf565b91505092915050565b5f81519050919050565b5f82825260208201905092915050565b5f5b83811015611d5e578082015181840152602081019050611d43565b5f8484015250505050565b5f601f19601f8301169050919050565b5f611d8382611d27565b611d8d8185611d31565b9350611d9d818560208601611d41565b611da681611d69565b840191505092915050565b5f6020820190508181035f830152611dc98184611d79565b905092915050565b5f80fd5b7f4e487b71000000000000000000000000000000000000000000000000000000005f52604160045260245ffd5b611e0b82611d69565b810181811067ffffffffffffffff82111715611e2a57611e29611dd5565b5b80604052505050565b5f611e3c611b45565b9050611e488282611e02565b919050565b5f67ffffffffffffffff821115611e6757611e66611dd5565b5b602082029050602081019050919050565b5f80fd5b5f611e8e611e8984611e4d565b611e33565b90508083825260208201905060208402830185811115611eb157611eb0611e78565b5b835b81811015611eda5780611ec68882611bcf565b845260208401935050602081019050611eb3565b5050509392505050565b5f82601f830112611ef857611ef7611dd1565b5b8135611f08848260208601611e7c565b91505092915050565b5f80fd5b5f67ffffffffffffffff821115611f2f57611f2e611dd5565b5b611f3882611d69565b9050602081019050919050565b828183375f83830152505050565b5f611f65611f6084611f15565b611e33565b905082815260208101848484011115611f8157611f80611f11565b5b611f8c848285611f45565b509392505050565b5f82601f830112611fa857611fa7611dd1565b5b8135611fb8848260208601611f53565b91505092915050565b5f805f805f60a08688031215611fda57611fd9611b4e565b5b5f611fe788828901611b9c565b9550506020611ff888828901611b9c565b945050604086013567ffffffffffffffff81111561201957612018611b52565b5b61202588828901611ee4565b935050606086013567ffffffffffffffff81111561204657612045611b52565b5b61205288828901611ee4565b925050608086013567ffffffffffffffff81111561207357612072611b52565b5b61207f88828901611f94565b9150509295509295909350565b5f67ffffffffffffffff8211156120a6576120a5611dd5565b5b602082029050602081019050919050565b5f6120c96120c48461208c565b611e33565b905080838252602082019050602084028301858111156120ec576120eb611e78565b5b835b8181101561211557806121018882611b9c565b8452602084019350506020810190506120ee565b5050509392505050565b5f82601f83011261213357612132611dd1565b5b81356121438482602086016120b7565b91505092915050565b5f806040838503121561216257612161611b4e565b5b5f83013567ffffffffffffffff81111561217f5761217e611b52565b5b61218b8582860161211f565b925050602083013567ffffffffffffffff8111156121ac576121ab611b52565b5b6121b885828601611ee4565b9150509250929050565b5f81519050919050565b5f82825260208201905092915050565b5f819050602082019050919050565b6121f481611bb0565b82525050565b5f61220583836121eb565b60208301905092915050565b5f602082019050919050565b5f612227826121c2565b61223181856121cc565b935061223c836121dc565b805f5b8381101561226c57815161225388826121fa565b975061225e83612211565b92505060018101905061223f565b5085935050505092915050565b5f6020820190508181035f830152612291818461221d565b905092915050565b5f67ffffffffffffffff8211156122b3576122b2611dd5565b5b6122bc82611d69565b9050602081019050919050565b5f6122db6122d684612299565b611e33565b9050828152602081018484840111156122f7576122f6611f11565b5b612302848285611f45565b509392505050565b5f82601f83011261231e5761231d611dd1565b5b813561232e8482602086016122c9565b91505092915050565b5f805f805f8060c0878903121561235157612350611b4e565b5b5f61235e89828a01611b9c565b965050602061236f89828a01611bcf565b955050604087013567ffffffffffffffff8111156123905761238f611b52565b5b61239c89828a0161230a565b945050606087013567ffffffffffffffff8111156123bd576123bc611b52565b5b6123c989828a0161230a565b935050608087013567ffffffffffffffff8111156123ea576123e9611b52565b5b6123f689828a0161230a565b92505060a061240789828a01611bcf565b9150509295509295509295565b61241d81611b75565b82525050565b5f6020820190506124365f830184612414565b92915050565b5f82825260208201905092915050565b5f61245682611d27565b612460818561243c565b9350612470818560208601611d41565b61247981611d69565b840191505092915050565b61248d81611cc9565b82525050565b5f60a083015f8301518482035f8601526124ad828261244c565b915050602083015184820360208601526124c7828261244c565b915050604083015184820360408601526124e1828261244c565b91505060608301516124f660608601826121eb565b5060808301516125096080860182612484565b508091505092915050565b5f6020820190508181035f83015261252c8184612493565b905092915050565b61253d81611cc9565b8114612547575f80fd5b50565b5f8135905061255881612534565b92915050565b5f806040838503121561257457612573611b4e565b5b5f61258185828601611b9c565b92505060206125928582860161254a565b9150509250929050565b5f80604083850312156125b2576125b1611b4e565b5b5f6125bf85828601611b9c565b92505060206125d085828601611b9c565b9150509250929050565b5f60a0820190508181035f8301526125f28188611d79565b905081810360208301526126068187611d79565b9050818103604083015261261a8186611d79565b90506126296060830185611c21565b6126366080830184611cd4565b9695505050505050565b5f805f805f60a0868803121561265957612658611b4e565b5b5f61266688828901611b9c565b955050602061267788828901611b9c565b945050604061268888828901611bcf565b935050606061269988828901611bcf565b925050608086013567ffffffffffffffff8111156126ba576126b9611b52565b5b6126c688828901611f94565b9150509295509295909350565b5f602082840312156126e8576126e7611b4e565b5b5f6126f584828501611b9c565b91505092915050565b7f4e487b71000000000000000000000000000000000000000000000000000000005f52602260045260245ffd5b5f600282049050600182168061274257607f821691505b602082108103612755576127546126fe565b5b50919050565b5f60408201905061276e5f830185612414565b61277b6020830184612414565b9392505050565b5f6040820190506127955f830185611c21565b6127a26020830184611c21565b9392505050565b7f4e487b71000000000000000000000000000000000000000000000000000000005f52603260045260245ffd5b7f4e487b71000000000000000000000000000000000000000000000000000000005f52601160045260245ffd5b5f61280d82611bb0565b91507fffffffffffffffffffffffffffffffffffffffffffffffffffffffffffffffff820361283f5761283e6127d6565b5b600182019050919050565b7f546f6b656e20494420616c7265616479206578697374730000000000000000005f82015250565b5f61287e601783611d31565b91506128898261284a565b602082019050919050565b5f6020820190508181035f8301526128ab81612872565b9050919050565b5f819050815f5260205f209050919050565b5f6020601f8301049050919050565b5f82821b905092915050565b5f6008830261290e7fffffffffffffffffffffffffffffffffffffffffffffffffffffffffffffffff826128d3565b61291886836128d3565b95508019841693508086168417925050509392505050565b5f819050919050565b5f61295361294e61294984611bb0565b612930565b611bb0565b9050919050565b5f819050919050565b61296c83612939565b6129806129788261295a565b8484546128df565b825550505050565b5f90565b612994612988565b61299f818484612963565b505050565b5b818110156129c2576129b75f8261298c565b6001810190506129a5565b5050565b601f821115612a07576129d8816128b2565b6129e1846128c4565b810160208510156129f0578190505b612a046129fc856128c4565b8301826129a4565b50505b505050565b5f82821c905092915050565b5f612a275f1984600802612a0c565b1980831691505092915050565b5f612a3f8383612a18565b9150826002028217905092915050565b612a5882611d27565b67ffffffffffffffff811115612a7157612a70611dd5565b5b612a7b825461272b565b612a868282856129c6565b5f60209050601f831160018114612ab7575f8415612aa5578287015190505b612aaf8582612a34565b865550612b16565b601f198416612ac5866128b2565b5f5b82811015612aec57848901518255600182019150602085019450602081019050612ac7565b86831015612b095784890151612b05601f891682612a18565b8355505b6001600288020188555050505b505050505050565b5f608082019050612b315f830187612414565b612b3e6020830186611c21565b612b4b6040830185611c21565b612b586060830184611c21565b95945050505050565b5f612b6b82611bb0565b9150612b7683611bb0565b9250828201905080821115612b8e57612b8d6127d6565b5b92915050565b5f6040820190508181035f830152612bac818561221d565b90508181036020830152612bc0818461221d565b90509392505050565b5f81519050919050565b5f82825260208201905092915050565b5f612bed82612bc9565b612bf78185612bd3565b9350612c07818560208601611d41565b612c1081611d69565b840191505092915050565b5f60a082019050612c2e5f830188612414565b612c3b6020830187612414565b612c486040830186611c21565b612c556060830185611c21565b8181036080830152612c678184612be3565b90509695505050505050565b5f81519050612c8181611c74565b92915050565b5f60208284031215612c9c57612c9b611b4e565b5b5f612ca984828501612c73565b91505092915050565b5f60a082019050612cc55f830188612414565b612cd26020830187612414565b8181036040830152612ce4818661221d565b90508181036060830152612cf8818561221d565b90508181036080830152612d0c8184612be3565b9050969550505050505056fea2646970667358221220b48811914cb147e2c7c14f2247cf8e07043348fb1acb7bd8bf5778760679775e64736f6c6343000814003368747470733a2f2f796f75722d6170692e636f6d2f6d657461646174612f7b69647d2e6a736f6e",
  "immutableReferences": {},
  "source": "// SPDX-License-Identifier: MIT\r\npragma solidity ^0.8.0;\r\n\r\nimport \"@openzeppelin/contracts/token/ERC1155/ERC1155.sol\";\r\nimport \"@openzeppelin/contracts/access/Ownable.sol\";\r\n\r\ncontract GifticonNFT is ERC1155, Ownable {\r\n    struct Gifticon {\r\n        string name;\r\n        string description;\r\n        string imageURL;\r\n        uint256 expiryDate;\r\n        bool isRedeemed;\r\n    }\r\n\r\n    mapping(uint256 => Gifticon) public gifticons;\r\n\r\n    constructor() ERC1155(\"https://your-api.com/metadata/{id}.json\") Ownable(msg.sender) {}\r\n\r\n    //   NFT  (JSON  )\r\n    function mint(\r\n        address account,\r\n        uint256 id,\r\n        string memory name,\r\n        string memory description,\r\n        string memory imageURL,\r\n        uint256 expiryDate\r\n    ) public onlyOwner {\r\n        require(gifticons[id].expiryDate == 0, \"Token ID already exists\");\r\n        _mint(account, id, 1, \"\"); // 1 NFT \r\n\r\n        //   \r\n        gifticons[id] = Gifticon(name, description, imageURL, expiryDate, false);\r\n    }\r\n\r\n    //   NFT  \r\n    function getGifticon(uint256 id) public view returns (Gifticon memory) {\r\n        return gifticons[id];\r\n    }\r\n}\r\n",
  "sourcePath": "C:\\Users\\SSAFY\\Desktop\\second\\S12P21E101\\smart-contract\\contracts\\GifticonNFT.sol",
  "compiler": {
    "name": "solc",
    "version": "0.8.20+commit.a1b79de6.Emscripten.clang"
  },
  "schemaVersion": "3.4.10",
  "updatedAt": "2025-03-18T07:18:38.072Z",
  "devdoc": {
    "errors": {
      "ERC1155InsufficientBalance(address,uint256,uint256,uint256)": [
        {
          "details": "Indicates an error related to the current `balance` of a `sender`. Used in transfers.",
          "params": {
            "balance": "Current balance for the interacting account.",
            "needed": "Minimum amount required to perform a transfer.",
            "sender": "Address whose tokens are being transferred.",
            "tokenId": "Identifier number of a token."
          }
        }
      ],
      "ERC1155InvalidApprover(address)": [
        {
          "details": "Indicates a failure with the `approver` of a token to be approved. Used in approvals.",
          "params": {
            "approver": "Address initiating an approval operation."
          }
        }
      ],
      "ERC1155InvalidArrayLength(uint256,uint256)": [
        {
          "details": "Indicates an array length mismatch between ids and values in a safeBatchTransferFrom operation. Used in batch transfers.",
          "params": {
            "idsLength": "Length of the array of token identifiers",
            "valuesLength": "Length of the array of token amounts"
          }
        }
      ],
      "ERC1155InvalidOperator(address)": [
        {
          "details": "Indicates a failure with the `operator` to be approved. Used in approvals.",
          "params": {
            "operator": "Address that may be allowed to operate on tokens without being their owner."
          }
        }
      ],
      "ERC1155InvalidReceiver(address)": [
        {
          "details": "Indicates a failure with the token `receiver`. Used in transfers.",
          "params": {
            "receiver": "Address to which tokens are being transferred."
          }
        }
      ],
      "ERC1155InvalidSender(address)": [
        {
          "details": "Indicates a failure with the token `sender`. Used in transfers.",
          "params": {
            "sender": "Address whose tokens are being transferred."
          }
        }
      ],
      "ERC1155MissingApprovalForAll(address,address)": [
        {
          "details": "Indicates a failure with the `operator`s approval. Used in transfers.",
          "params": {
            "operator": "Address that may be allowed to operate on tokens without being their owner.",
            "owner": "Address of the current owner of a token."
          }
        }
      ],
      "OwnableInvalidOwner(address)": [
        {
          "details": "The owner is not a valid owner account. (eg. `address(0)`)"
        }
      ],
      "OwnableUnauthorizedAccount(address)": [
        {
          "details": "The caller account is not authorized to perform an operation."
        }
      ]
    },
    "events": {
      "ApprovalForAll(address,address,bool)": {
        "details": "Emitted when `account` grants or revokes permission to `operator` to transfer their tokens, according to `approved`."
      },
      "TransferBatch(address,address,address,uint256[],uint256[])": {
        "details": "Equivalent to multiple {TransferSingle} events, where `operator`, `from` and `to` are the same for all transfers."
      },
      "TransferSingle(address,address,address,uint256,uint256)": {
        "details": "Emitted when `value` amount of tokens of type `id` are transferred from `from` to `to` by `operator`."
      },
      "URI(string,uint256)": {
        "details": "Emitted when the URI for token type `id` changes to `value`, if it is a non-programmatic URI. If an {URI} event was emitted for `id`, the standard https://eips.ethereum.org/EIPS/eip-1155#metadata-extensions[guarantees] that `value` will equal the value returned by {IERC1155MetadataURI-uri}."
      }
    },
    "kind": "dev",
    "methods": {
      "balanceOf(address,uint256)": {
        "details": "See {IERC1155-balanceOf}."
      },
      "balanceOfBatch(address[],uint256[])": {
        "details": "See {IERC1155-balanceOfBatch}. Requirements: - `accounts` and `ids` must have the same length."
      },
      "isApprovedForAll(address,address)": {
        "details": "See {IERC1155-isApprovedForAll}."
      },
      "owner()": {
        "details": "Returns the address of the current owner."
      },
      "renounceOwnership()": {
        "details": "Leaves the contract without owner. It will not be possible to call `onlyOwner` functions. Can only be called by the current owner. NOTE: Renouncing ownership will leave the contract without an owner, thereby disabling any functionality that is only available to the owner."
      },
      "safeBatchTransferFrom(address,address,uint256[],uint256[],bytes)": {
        "details": "See {IERC1155-safeBatchTransferFrom}."
      },
      "safeTransferFrom(address,address,uint256,uint256,bytes)": {
        "details": "See {IERC1155-safeTransferFrom}."
      },
      "setApprovalForAll(address,bool)": {
        "details": "See {IERC1155-setApprovalForAll}."
      },
      "supportsInterface(bytes4)": {
        "details": "See {IERC165-supportsInterface}."
      },
      "transferOwnership(address)": {
        "details": "Transfers ownership of the contract to a new account (`newOwner`). Can only be called by the current owner."
      },
      "uri(uint256)": {
        "details": "See {IERC1155MetadataURI-uri}. This implementation returns the same URI for *all* token types. It relies on the token type ID substitution mechanism https://eips.ethereum.org/EIPS/eip-1155#metadata[defined in the ERC]. Clients calling this function must replace the `\\{id\\}` substring with the actual token type ID."
      }
    },
    "version": 1
  },
  "userdoc": {
    "kind": "user",
    "methods": {},
    "version": 1
  }
}