{
  "contractName": "MyERC1155",
  "abi": [
    {
      "inputs": [],
      "stateMutability": "nonpayable",
      "type": "constructor"
    },
    {
      "inputs": [
        {
          "internalType": "address",
          "name": "sender",
          "type": "address"
        },
        {
          "internalType": "uint256",
          "name": "balance",
          "type": "uint256"
        },
        {
          "internalType": "uint256",
          "name": "needed",
          "type": "uint256"
        },
        {
          "internalType": "uint256",
          "name": "tokenId",
          "type": "uint256"
        }
      ],
      "name": "ERC1155InsufficientBalance",
      "type": "error"
    },
    {
      "inputs": [
        {
          "internalType": "address",
          "name": "approver",
          "type": "address"
        }
      ],
      "name": "ERC1155InvalidApprover",
      "type": "error"
    },
    {
      "inputs": [
        {
          "internalType": "uint256",
          "name": "idsLength",
          "type": "uint256"
        },
        {
          "internalType": "uint256",
          "name": "valuesLength",
          "type": "uint256"
        }
      ],
      "name": "ERC1155InvalidArrayLength",
      "type": "error"
    },
    {
      "inputs": [
        {
          "internalType": "address",
          "name": "operator",
          "type": "address"
        }
      ],
      "name": "ERC1155InvalidOperator",
      "type": "error"
    },
    {
      "inputs": [
        {
          "internalType": "address",
          "name": "receiver",
          "type": "address"
        }
      ],
      "name": "ERC1155InvalidReceiver",
      "type": "error"
    },
    {
      "inputs": [
        {
          "internalType": "address",
          "name": "sender",
          "type": "address"
        }
      ],
      "name": "ERC1155InvalidSender",
      "type": "error"
    },
    {
      "inputs": [
        {
          "internalType": "address",
          "name": "operator",
          "type": "address"
        },
        {
          "internalType": "address",
          "name": "owner",
          "type": "address"
        }
      ],
      "name": "ERC1155MissingApprovalForAll",
      "type": "error"
    },
    {
      "inputs": [
        {
          "internalType": "address",
          "name": "owner",
          "type": "address"
        }
      ],
      "name": "OwnableInvalidOwner",
      "type": "error"
    },
    {
      "inputs": [
        {
          "internalType": "address",
          "name": "account",
          "type": "address"
        }
      ],
      "name": "OwnableUnauthorizedAccount",
      "type": "error"
    },
    {
      "anonymous": false,
      "inputs": [
        {
          "indexed": true,
          "internalType": "address",
          "name": "account",
          "type": "address"
        },
        {
          "indexed": true,
          "internalType": "address",
          "name": "operator",
          "type": "address"
        },
        {
          "indexed": false,
          "internalType": "bool",
          "name": "approved",
          "type": "bool"
        }
      ],
      "name": "ApprovalForAll",
      "type": "event"
    },
    {
      "anonymous": false,
      "inputs": [
        {
          "indexed": true,
          "internalType": "address",
          "name": "previousOwner",
          "type": "address"
        },
        {
          "indexed": true,
          "internalType": "address",
          "name": "newOwner",
          "type": "address"
        }
      ],
      "name": "OwnershipTransferred",
      "type": "event"
    },
    {
      "anonymous": false,
      "inputs": [
        {
          "indexed": true,
          "internalType": "address",
          "name": "operator",
          "type": "address"
        },
        {
          "indexed": true,
          "internalType": "address",
          "name": "from",
          "type": "address"
        },
        {
          "indexed": true,
          "internalType": "address",
          "name": "to",
          "type": "address"
        },
        {
          "indexed": false,
          "internalType": "uint256[]",
          "name": "ids",
          "type": "uint256[]"
        },
        {
          "indexed": false,
          "internalType": "uint256[]",
          "name": "values",
          "type": "uint256[]"
        }
      ],
      "name": "TransferBatch",
      "type": "event"
    },
    {
      "anonymous": false,
      "inputs": [
        {
          "indexed": true,
          "internalType": "address",
          "name": "operator",
          "type": "address"
        },
        {
          "indexed": true,
          "internalType": "address",
          "name": "from",
          "type": "address"
        },
        {
          "indexed": true,
          "internalType": "address",
          "name": "to",
          "type": "address"
        },
        {
          "indexed": false,
          "internalType": "uint256",
          "name": "id",
          "type": "uint256"
        },
        {
          "indexed": false,
          "internalType": "uint256",
          "name": "value",
          "type": "uint256"
        }
      ],
      "name": "TransferSingle",
      "type": "event"
    },
    {
      "anonymous": false,
      "inputs": [
        {
          "indexed": false,
          "internalType": "string",
          "name": "value",
          "type": "string"
        },
        {
          "indexed": true,
          "internalType": "uint256",
          "name": "id",
          "type": "uint256"
        }
      ],
      "name": "URI",
      "type": "event"
    },
    {
      "inputs": [],
      "name": "ITEM1",
      "outputs": [
        {
          "internalType": "uint256",
          "name": "",
          "type": "uint256"
        }
      ],
      "stateMutability": "view",
      "type": "function",
      "constant": true
    },
    {
      "inputs": [],
      "name": "ITEM2",
      "outputs": [
        {
          "internalType": "uint256",
          "name": "",
          "type": "uint256"
        }
      ],
      "stateMutability": "view",
      "type": "function",
      "constant": true
    },
    {
      "inputs": [
        {
          "internalType": "address",
          "name": "account",
          "type": "address"
        },
        {
          "internalType": "uint256",
          "name": "id",
          "type": "uint256"
        }
      ],
      "name": "balanceOf",
      "outputs": [
        {
          "internalType": "uint256",
          "name": "",
          "type": "uint256"
        }
      ],
      "stateMutability": "view",
      "type": "function",
      "constant": true
    },
    {
      "inputs": [
        {
          "internalType": "address[]",
          "name": "accounts",
          "type": "address[]"
        },
        {
          "internalType": "uint256[]",
          "name": "ids",
          "type": "uint256[]"
        }
      ],
      "name": "balanceOfBatch",
      "outputs": [
        {
          "internalType": "uint256[]",
          "name": "",
          "type": "uint256[]"
        }
      ],
      "stateMutability": "view",
      "type": "function",
      "constant": true
    },
    {
      "inputs": [
        {
          "internalType": "address",
          "name": "account",
          "type": "address"
        },
        {
          "internalType": "address",
          "name": "operator",
          "type": "address"
        }
      ],
      "name": "isApprovedForAll",
      "outputs": [
        {
          "internalType": "bool",
          "name": "",
          "type": "bool"
        }
      ],
      "stateMutability": "view",
      "type": "function",
      "constant": true
    },
    {
      "inputs": [],
      "name": "owner",
      "outputs": [
        {
          "internalType": "address",
          "name": "",
          "type": "address"
        }
      ],
      "stateMutability": "view",
      "type": "function",
      "constant": true
    },
    {
      "inputs": [],
      "name": "renounceOwnership",
      "outputs": [],
      "stateMutability": "nonpayable",
      "type": "function"
    },
    {
      "inputs": [
        {
          "internalType": "address",
          "name": "from",
          "type": "address"
        },
        {
          "internalType": "address",
          "name": "to",
          "type": "address"
        },
        {
          "internalType": "uint256[]",
          "name": "ids",
          "type": "uint256[]"
        },
        {
          "internalType": "uint256[]",
          "name": "values",
          "type": "uint256[]"
        },
        {
          "internalType": "bytes",
          "name": "data",
          "type": "bytes"
        }
      ],
      "name": "safeBatchTransferFrom",
      "outputs": [],
      "stateMutability": "nonpayable",
      "type": "function"
    },
    {
      "inputs": [
        {
          "internalType": "address",
          "name": "from",
          "type": "address"
        },
        {
          "internalType": "address",
          "name": "to",
          "type": "address"
        },
        {
          "internalType": "uint256",
          "name": "id",
          "type": "uint256"
        },
        {
          "internalType": "uint256",
          "name": "value",
          "type": "uint256"
        },
        {
          "internalType": "bytes",
          "name": "data",
          "type": "bytes"
        }
      ],
      "name": "safeTransferFrom",
      "outputs": [],
      "stateMutability": "nonpayable",
      "type": "function"
    },
    {
      "inputs": [
        {
          "internalType": "address",
          "name": "operator",
          "type": "address"
        },
        {
          "internalType": "bool",
          "name": "approved",
          "type": "bool"
        }
      ],
      "name": "setApprovalForAll",
      "outputs": [],
      "stateMutability": "nonpayable",
      "type": "function"
    },
    {
      "inputs": [
        {
          "internalType": "bytes4",
          "name": "interfaceId",
          "type": "bytes4"
        }
      ],
      "name": "supportsInterface",
      "outputs": [
        {
          "internalType": "bool",
          "name": "",
          "type": "bool"
        }
      ],
      "stateMutability": "view",
      "type": "function",
      "constant": true
    },
    {
      "inputs": [
        {
          "internalType": "address",
          "name": "newOwner",
          "type": "address"
        }
      ],
      "name": "transferOwnership",
      "outputs": [],
      "stateMutability": "nonpayable",
      "type": "function"
    },
    {
      "inputs": [
        {
          "internalType": "uint256",
          "name": "",
          "type": "uint256"
        }
      ],
      "name": "uri",
      "outputs": [
        {
          "internalType": "string",
          "name": "",
          "type": "string"
        }
      ],
      "stateMutability": "view",
      "type": "function",
      "constant": true
    },
    {
      "inputs": [
        {
          "internalType": "address",
          "name": "account",
          "type": "address"
        },
        {
          "internalType": "uint256",
          "name": "id",
          "type": "uint256"
        },
        {
          "internalType": "uint256",
          "name": "amount",
          "type": "uint256"
        }
      ],
      "name": "mint",
      "outputs": [],
      "stateMutability": "nonpayable",
      "type": "function"
    },
    {
      "inputs": [
        {
          "internalType": "address",
          "name": "account",
          "type": "address"
        },
        {
          "internalType": "uint256[]",
          "name": "ids",
          "type": "uint256[]"
        },
        {
          "internalType": "uint256[]",
          "name": "amounts",
          "type": "uint256[]"
        }
      ],
      "name": "mintBatch",
      "outputs": [],
      "stateMutability": "nonpayable",
      "type": "function"
    }
  ],
  "bytecode": "0x608060405234801562000010575f80fd5b503360405180602001604052805f8152506200003281620000be60201b60201c565b505f73ffffffffffffffffffffffffffffffffffffffff168173ffffffffffffffffffffffffffffffffffffffff1603620000a6575f6040517f1e4fbdf70000000000000000000000000000000000000000000000000000000081526004016200009d9190620001d9565b60405180910390fd5b620000b781620000d360201b60201c565b506200053c565b8060029081620000cf919062000458565b5050565b5f60035f9054906101000a900473ffffffffffffffffffffffffffffffffffffffff1690508160035f6101000a81548173ffffffffffffffffffffffffffffffffffffffff021916908373ffffffffffffffffffffffffffffffffffffffff1602179055508173ffffffffffffffffffffffffffffffffffffffff168173ffffffffffffffffffffffffffffffffffffffff167f8be0079c531659141344cd1fd0a4f28419497f9722a3daafe3b4186f6b6457e060405160405180910390a35050565b5f73ffffffffffffffffffffffffffffffffffffffff82169050919050565b5f620001c18262000196565b9050919050565b620001d381620001b5565b82525050565b5f602082019050620001ee5f830184620001c8565b92915050565b5f81519050919050565b7f4e487b71000000000000000000000000000000000000000000000000000000005f52604160045260245ffd5b7f4e487b71000000000000000000000000000000000000000000000000000000005f52602260045260245ffd5b5f60028204905060018216806200027057607f821691505b6020821081036200028657620002856200022b565b5b50919050565b5f819050815f5260205f209050919050565b5f6020601f8301049050919050565b5f82821b905092915050565b5f60088302620002ea7fffffffffffffffffffffffffffffffffffffffffffffffffffffffffffffffff82620002ad565b620002f68683620002ad565b95508019841693508086168417925050509392505050565b5f819050919050565b5f819050919050565b5f620003406200033a62000334846200030e565b62000317565b6200030e565b9050919050565b5f819050919050565b6200035b8362000320565b620003736200036a8262000347565b848454620002b9565b825550505050565b5f90565b620003896200037b565b6200039681848462000350565b505050565b5b81811015620003bd57620003b15f826200037f565b6001810190506200039c565b5050565b601f8211156200040c57620003d6816200028c565b620003e1846200029e565b81016020851015620003f1578190505b6200040962000400856200029e565b8301826200039b565b50505b505050565b5f82821c905092915050565b5f6200042e5f198460080262000411565b1980831691505092915050565b5f6200044883836200041d565b9150826002028217905092915050565b6200046382620001f4565b67ffffffffffffffff8111156200047f576200047e620001fe565b5b6200048b825462000258565b62000498828285620003c1565b5f60209050601f831160018114620004ce575f8415620004b9578287015190505b620004c585826200043b565b86555062000534565b601f198416620004de866200028c565b5f5b828110156200050757848901518255600182019150602085019450602081019050620004e0565b8683101562000527578489015162000523601f8916826200041d565b8355505b6001600288020188555050505b505050505050565b61242f806200054a5f395ff3fe608060405234801561000f575f80fd5b50600436106100f2575f3560e01c8063715018a611610095578063d81d0a1511610064578063d81d0a151461026e578063e985e9c51461028a578063f242432a146102ba578063f2fde38b146102d6576100f2565b8063715018a61461020c5780638da5cb5b14610216578063a22cb46514610234578063ab4dca3314610250576100f2565b8063156e29f6116100d1578063156e29f6146101865780632eb2c2d6146101a2578063489b76b4146101be5780634e1273f4146101dc576100f2565b8062fdd58e146100f657806301ffc9a7146101265780630e89341c14610156575b5f80fd5b610110600480360381019061010b9190611799565b6102f2565b60405161011d91906117e6565b60405180910390f35b610140600480360381019061013b9190611854565b610347565b60405161014d9190611899565b60405180910390f35b610170600480360381019061016b91906118b2565b610428565b60405161017d9190611967565b60405180910390f35b6101a0600480360381019061019b9190611987565b6104ba565b005b6101bc60048036038101906101b79190611bc7565b6104e1565b005b6101c6610588565b6040516101d391906117e6565b60405180910390f35b6101f660048036038101906101f19190611d52565b61058d565b6040516102039190611e7f565b60405180910390f35b61021461069a565b005b61021e6106ad565b60405161022b9190611eae565b60405180910390f35b61024e60048036038101906102499190611ef1565b6106d5565b005b6102586106eb565b60405161026591906117e6565b60405180910390f35b61028860048036038101906102839190611f2f565b6106f0565b005b6102a4600480360381019061029f9190611fb7565b610717565b6040516102b19190611899565b60405180910390f35b6102d460048036038101906102cf9190611ff5565b6107a5565b005b6102f060048036038101906102eb9190612088565b61084c565b005b5f805f8381526020019081526020015f205f8473ffffffffffffffffffffffffffffffffffffffff1673ffffffffffffffffffffffffffffffffffffffff1681526020019081526020015f2054905092915050565b5f7fd9b67a26000000000000000000000000000000000000000000000000000000007bffffffffffffffffffffffffffffffffffffffffffffffffffffffff1916827bffffffffffffffffffffffffffffffffffffffffffffffffffffffff1916148061041157507f0e89341c000000000000000000000000000000000000000000000000000000007bffffffffffffffffffffffffffffffffffffffffffffffffffffffff1916827bffffffffffffffffffffffffffffffffffffffffffffffffffffffff1916145b806104215750610420826108d0565b5b9050919050565b606060028054610437906120e0565b80601f0160208091040260200160405190810160405280929190818152602001828054610463906120e0565b80156104ae5780601f10610485576101008083540402835291602001916104ae565b820191905f5260205f20905b81548152906001019060200180831161049157829003601f168201915b50505050509050919050565b6104c2610939565b6104dc83838360405180602001604052805f8152506109c0565b505050565b5f6104ea610a55565b90508073ffffffffffffffffffffffffffffffffffffffff168673ffffffffffffffffffffffffffffffffffffffff161415801561052f575061052d8682610717565b155b156105735780866040517fe237d92200000000000000000000000000000000000000000000000000000000815260040161056a929190612110565b60405180910390fd5b6105808686868686610a5c565b505050505050565b600281565b606081518351146105d957815183516040517f5b0599910000000000000000000000000000000000000000000000000000000081526004016105d0929190612137565b60405180910390fd5b5f835167ffffffffffffffff8111156105f5576105f46119db565b5b6040519080825280602002602001820160405280156106235781602001602082028036833780820191505090505b5090505f5b845181101561068f5761065f6106478287610b5090919063ffffffff16565b61065a8387610b6390919063ffffffff16565b6102f2565b8282815181106106725761067161215e565b5b60200260200101818152505080610688906121b8565b9050610628565b508091505092915050565b6106a2610939565b6106ab5f610b76565b565b5f60035f9054906101000a900473ffffffffffffffffffffffffffffffffffffffff16905090565b6106e76106e0610a55565b8383610c39565b5050565b600181565b6106f8610939565b61071283838360405180602001604052805f815250610da2565b505050565b5f60015f8473ffffffffffffffffffffffffffffffffffffffff1673ffffffffffffffffffffffffffffffffffffffff1681526020019081526020015f205f8373ffffffffffffffffffffffffffffffffffffffff1673ffffffffffffffffffffffffffffffffffffffff1681526020019081526020015f205f9054906101000a900460ff16905092915050565b5f6107ae610a55565b90508073ffffffffffffffffffffffffffffffffffffffff168673ffffffffffffffffffffffffffffffffffffffff16141580156107f357506107f18682610717565b155b156108375780866040517fe237d92200000000000000000000000000000000000000000000000000000000815260040161082e929190612110565b60405180910390fd5b6108448686868686610e25565b505050505050565b610854610939565b5f73ffffffffffffffffffffffffffffffffffffffff168173ffffffffffffffffffffffffffffffffffffffff16036108c4575f6040517f1e4fbdf70000000000000000000000000000000000000000000000000000000081526004016108bb9190611eae565b60405180910390fd5b6108cd81610b76565b50565b5f7f01ffc9a7000000000000000000000000000000000000000000000000000000007bffffffffffffffffffffffffffffffffffffffffffffffffffffffff1916827bffffffffffffffffffffffffffffffffffffffffffffffffffffffff1916149050919050565b610941610a55565b73ffffffffffffffffffffffffffffffffffffffff1661095f6106ad565b73ffffffffffffffffffffffffffffffffffffffff16146109be57610982610a55565b6040517f118cdaa70000000000000000000000000000000000000000000000000000000081526004016109b59190611eae565b60405180910390fd5b565b5f73ffffffffffffffffffffffffffffffffffffffff168473ffffffffffffffffffffffffffffffffffffffff1603610a30575f6040517f57f447ce000000000000000000000000000000000000000000000000000000008152600401610a279190611eae565b60405180910390fd5b5f80610a3c8585610f2b565b91509150610a4d5f87848487610f5b565b505050505050565b5f33905090565b5f73ffffffffffffffffffffffffffffffffffffffff168473ffffffffffffffffffffffffffffffffffffffff1603610acc575f6040517f57f447ce000000000000000000000000000000000000000000000000000000008152600401610ac39190611eae565b60405180910390fd5b5f73ffffffffffffffffffffffffffffffffffffffff168573ffffffffffffffffffffffffffffffffffffffff1603610b3c575f6040517f01a83514000000000000000000000000000000000000000000000000000000008152600401610b339190611eae565b60405180910390fd5b610b498585858585610f5b565b5050505050565b5f60208202602084010151905092915050565b5f60208202602084010151905092915050565b5f60035f9054906101000a900473ffffffffffffffffffffffffffffffffffffffff1690508160035f6101000a81548173ffffffffffffffffffffffffffffffffffffffff021916908373ffffffffffffffffffffffffffffffffffffffff1602179055508173ffffffffffffffffffffffffffffffffffffffff168173ffffffffffffffffffffffffffffffffffffffff167f8be0079c531659141344cd1fd0a4f28419497f9722a3daafe3b4186f6b6457e060405160405180910390a35050565b5f73ffffffffffffffffffffffffffffffffffffffff168273ffffffffffffffffffffffffffffffffffffffff1603610ca9575f6040517fced3e100000000000000000000000000000000000000000000000000000000008152600401610ca09190611eae565b60405180910390fd5b8060015f8573ffffffffffffffffffffffffffffffffffffffff1673ffffffffffffffffffffffffffffffffffffffff1681526020019081526020015f205f8473ffffffffffffffffffffffffffffffffffffffff1673ffffffffffffffffffffffffffffffffffffffff1681526020019081526020015f205f6101000a81548160ff0219169083151502179055508173ffffffffffffffffffffffffffffffffffffffff168373ffffffffffffffffffffffffffffffffffffffff167f17307eab39ab6107e8899845ad3d59bd9653f200f220920489ca2b5937696c3183604051610d959190611899565b60405180910390a3505050565b5f73ffffffffffffffffffffffffffffffffffffffff168473ffffffffffffffffffffffffffffffffffffffff1603610e12575f6040517f57f447ce000000000000000000000000000000000000000000000000000000008152600401610e099190611eae565b60405180910390fd5b610e1f5f85858585610f5b565b50505050565b5f73ffffffffffffffffffffffffffffffffffffffff168473ffffffffffffffffffffffffffffffffffffffff1603610e95575f6040517f57f447ce000000000000000000000000000000000000000000000000000000008152600401610e8c9190611eae565b60405180910390fd5b5f73ffffffffffffffffffffffffffffffffffffffff168573ffffffffffffffffffffffffffffffffffffffff1603610f05575f6040517f01a83514000000000000000000000000000000000000000000000000000000008152600401610efc9190611eae565b60405180910390fd5b5f80610f118585610f2b565b91509150610f228787848487610f5b565b50505050505050565b60608060405191506001825283602083015260408201905060018152826020820152604081016040529250929050565b610f6785858585611007565b5f73ffffffffffffffffffffffffffffffffffffffff168473ffffffffffffffffffffffffffffffffffffffff1614611000575f610fa3610a55565b90506001845103610fef575f610fc25f86610b6390919063ffffffff16565b90505f610fd85f86610b6390919063ffffffff16565b9050610fe883898985858961139d565b5050610ffe565b610ffd81878787878761154c565b5b505b5050505050565b805182511461105157815181516040517f5b059991000000000000000000000000000000000000000000000000000000008152600401611048929190612137565b60405180910390fd5b5f61105a610a55565b90505f5b835181101561125c575f61107b8286610b6390919063ffffffff16565b90505f6110918386610b6390919063ffffffff16565b90505f73ffffffffffffffffffffffffffffffffffffffff168873ffffffffffffffffffffffffffffffffffffffff16146111b4575f805f8481526020019081526020015f205f8a73ffffffffffffffffffffffffffffffffffffffff1673ffffffffffffffffffffffffffffffffffffffff1681526020019081526020015f205490508181101561116057888183856040517f03dee4c500000000000000000000000000000000000000000000000000000000815260040161115794939291906121ff565b60405180910390fd5b8181035f808581526020019081526020015f205f8b73ffffffffffffffffffffffffffffffffffffffff1673ffffffffffffffffffffffffffffffffffffffff1681526020019081526020015f2081905550505b5f73ffffffffffffffffffffffffffffffffffffffff168773ffffffffffffffffffffffffffffffffffffffff161461124957805f808481526020019081526020015f205f8973ffffffffffffffffffffffffffffffffffffffff1673ffffffffffffffffffffffffffffffffffffffff1681526020019081526020015f205f8282546112419190612242565b925050819055505b505080611255906121b8565b905061105e565b506001835103611317575f61127a5f85610b6390919063ffffffff16565b90505f6112905f85610b6390919063ffffffff16565b90508573ffffffffffffffffffffffffffffffffffffffff168773ffffffffffffffffffffffffffffffffffffffff168473ffffffffffffffffffffffffffffffffffffffff167fc3d58168c5ae7397731d063d5bbf3d657854427343f4c083240f7aacaa2d0f628585604051611308929190612137565b60405180910390a45050611396565b8373ffffffffffffffffffffffffffffffffffffffff168573ffffffffffffffffffffffffffffffffffffffff168273ffffffffffffffffffffffffffffffffffffffff167f4a39dc06d4c0dbc64b70af90fd698a233a518aa5d07e595d983b8c0526c8f7fb868660405161138d929190612275565b60405180910390a45b5050505050565b5f8473ffffffffffffffffffffffffffffffffffffffff163b1115611544578373ffffffffffffffffffffffffffffffffffffffff1663f23a6e6187878686866040518663ffffffff1660e01b81526004016113fd9594939291906122fc565b6020604051808303815f875af192505050801561143857506040513d601f19601f820116820180604052508101906114359190612368565b60015b6114b9573d805f8114611466576040519150601f19603f3d011682016040523d82523d5f602084013e61146b565b606091505b505f8151036114b157846040517f57f447ce0000000000000000000000000000000000000000000000000000000081526004016114a89190611eae565b60405180910390fd5b805181602001fd5b63f23a6e6160e01b7bffffffffffffffffffffffffffffffffffffffffffffffffffffffff1916817bffffffffffffffffffffffffffffffffffffffffffffffffffffffff19161461154257846040517f57f447ce0000000000000000000000000000000000000000000000000000000081526004016115399190611eae565b60405180910390fd5b505b505050505050565b5f8473ffffffffffffffffffffffffffffffffffffffff163b11156116f3578373ffffffffffffffffffffffffffffffffffffffff1663bc197c8187878686866040518663ffffffff1660e01b81526004016115ac959493929190612393565b6020604051808303815f875af19250505080156115e757506040513d601f19601f820116820180604052508101906115e49190612368565b60015b611668573d805f8114611615576040519150601f19603f3d011682016040523d82523d5f602084013e61161a565b606091505b505f81510361166057846040517f57f447ce0000000000000000000000000000000000000000000000000000000081526004016116579190611eae565b60405180910390fd5b805181602001fd5b63bc197c8160e01b7bffffffffffffffffffffffffffffffffffffffffffffffffffffffff1916817bffffffffffffffffffffffffffffffffffffffffffffffffffffffff1916146116f157846040517f57f447ce0000000000000000000000000000000000000000000000000000000081526004016116e89190611eae565b60405180910390fd5b505b505050505050565b5f604051905090565b5f80fd5b5f80fd5b5f73ffffffffffffffffffffffffffffffffffffffff82169050919050565b5f6117358261170c565b9050919050565b6117458161172b565b811461174f575f80fd5b50565b5f813590506117608161173c565b92915050565b5f819050919050565b61177881611766565b8114611782575f80fd5b50565b5f813590506117938161176f565b92915050565b5f80604083850312156117af576117ae611704565b5b5f6117bc85828601611752565b92505060206117cd85828601611785565b9150509250929050565b6117e081611766565b82525050565b5f6020820190506117f95f8301846117d7565b92915050565b5f7fffffffff0000000000000000000000000000000000000000000000000000000082169050919050565b611833816117ff565b811461183d575f80fd5b50565b5f8135905061184e8161182a565b92915050565b5f6020828403121561186957611868611704565b5b5f61187684828501611840565b91505092915050565b5f8115159050919050565b6118938161187f565b82525050565b5f6020820190506118ac5f83018461188a565b92915050565b5f602082840312156118c7576118c6611704565b5b5f6118d484828501611785565b91505092915050565b5f81519050919050565b5f82825260208201905092915050565b5f5b838110156119145780820151818401526020810190506118f9565b5f8484015250505050565b5f601f19601f8301169050919050565b5f611939826118dd565b61194381856118e7565b93506119538185602086016118f7565b61195c8161191f565b840191505092915050565b5f6020820190508181035f83015261197f818461192f565b905092915050565b5f805f6060848603121561199e5761199d611704565b5b5f6119ab86828701611752565b93505060206119bc86828701611785565b92505060406119cd86828701611785565b9150509250925092565b5f80fd5b7f4e487b71000000000000000000000000000000000000000000000000000000005f52604160045260245ffd5b611a118261191f565b810181811067ffffffffffffffff82111715611a3057611a2f6119db565b5b80604052505050565b5f611a426116fb565b9050611a4e8282611a08565b919050565b5f67ffffffffffffffff821115611a6d57611a6c6119db565b5b602082029050602081019050919050565b5f80fd5b5f611a94611a8f84611a53565b611a39565b90508083825260208201905060208402830185811115611ab757611ab6611a7e565b5b835b81811015611ae05780611acc8882611785565b845260208401935050602081019050611ab9565b5050509392505050565b5f82601f830112611afe57611afd6119d7565b5b8135611b0e848260208601611a82565b91505092915050565b5f80fd5b5f67ffffffffffffffff821115611b3557611b346119db565b5b611b3e8261191f565b9050602081019050919050565b828183375f83830152505050565b5f611b6b611b6684611b1b565b611a39565b905082815260208101848484011115611b8757611b86611b17565b5b611b92848285611b4b565b509392505050565b5f82601f830112611bae57611bad6119d7565b5b8135611bbe848260208601611b59565b91505092915050565b5f805f805f60a08688031215611be057611bdf611704565b5b5f611bed88828901611752565b9550506020611bfe88828901611752565b945050604086013567ffffffffffffffff811115611c1f57611c1e611708565b5b611c2b88828901611aea565b935050606086013567ffffffffffffffff811115611c4c57611c4b611708565b5b611c5888828901611aea565b925050608086013567ffffffffffffffff811115611c7957611c78611708565b5b611c8588828901611b9a565b9150509295509295909350565b5f67ffffffffffffffff821115611cac57611cab6119db565b5b602082029050602081019050919050565b5f611ccf611cca84611c92565b611a39565b90508083825260208201905060208402830185811115611cf257611cf1611a7e565b5b835b81811015611d1b5780611d078882611752565b845260208401935050602081019050611cf4565b5050509392505050565b5f82601f830112611d3957611d386119d7565b5b8135611d49848260208601611cbd565b91505092915050565b5f8060408385031215611d6857611d67611704565b5b5f83013567ffffffffffffffff811115611d8557611d84611708565b5b611d9185828601611d25565b925050602083013567ffffffffffffffff811115611db257611db1611708565b5b611dbe85828601611aea565b9150509250929050565b5f81519050919050565b5f82825260208201905092915050565b5f819050602082019050919050565b611dfa81611766565b82525050565b5f611e0b8383611df1565b60208301905092915050565b5f602082019050919050565b5f611e2d82611dc8565b611e378185611dd2565b9350611e4283611de2565b805f5b83811015611e72578151611e598882611e00565b9750611e6483611e17565b925050600181019050611e45565b5085935050505092915050565b5f6020820190508181035f830152611e978184611e23565b905092915050565b611ea88161172b565b82525050565b5f602082019050611ec15f830184611e9f565b92915050565b611ed08161187f565b8114611eda575f80fd5b50565b5f81359050611eeb81611ec7565b92915050565b5f8060408385031215611f0757611f06611704565b5b5f611f1485828601611752565b9250506020611f2585828601611edd565b9150509250929050565b5f805f60608486031215611f4657611f45611704565b5b5f611f5386828701611752565b935050602084013567ffffffffffffffff811115611f7457611f73611708565b5b611f8086828701611aea565b925050604084013567ffffffffffffffff811115611fa157611fa0611708565b5b611fad86828701611aea565b9150509250925092565b5f8060408385031215611fcd57611fcc611704565b5b5f611fda85828601611752565b9250506020611feb85828601611752565b9150509250929050565b5f805f805f60a0868803121561200e5761200d611704565b5b5f61201b88828901611752565b955050602061202c88828901611752565b945050604061203d88828901611785565b935050606061204e88828901611785565b925050608086013567ffffffffffffffff81111561206f5761206e611708565b5b61207b88828901611b9a565b9150509295509295909350565b5f6020828403121561209d5761209c611704565b5b5f6120aa84828501611752565b91505092915050565b7f4e487b71000000000000000000000000000000000000000000000000000000005f52602260045260245ffd5b5f60028204905060018216806120f757607f821691505b60208210810361210a576121096120b3565b5b50919050565b5f6040820190506121235f830185611e9f565b6121306020830184611e9f565b9392505050565b5f60408201905061214a5f8301856117d7565b61215760208301846117d7565b9392505050565b7f4e487b71000000000000000000000000000000000000000000000000000000005f52603260045260245ffd5b7f4e487b71000000000000000000000000000000000000000000000000000000005f52601160045260245ffd5b5f6121c282611766565b91507fffffffffffffffffffffffffffffffffffffffffffffffffffffffffffffffff82036121f4576121f361218b565b5b600182019050919050565b5f6080820190506122125f830187611e9f565b61221f60208301866117d7565b61222c60408301856117d7565b61223960608301846117d7565b95945050505050565b5f61224c82611766565b915061225783611766565b925082820190508082111561226f5761226e61218b565b5b92915050565b5f6040820190508181035f83015261228d8185611e23565b905081810360208301526122a18184611e23565b90509392505050565b5f81519050919050565b5f82825260208201905092915050565b5f6122ce826122aa565b6122d881856122b4565b93506122e88185602086016118f7565b6122f18161191f565b840191505092915050565b5f60a08201905061230f5f830188611e9f565b61231c6020830187611e9f565b61232960408301866117d7565b61233660608301856117d7565b818103608083015261234881846122c4565b90509695505050505050565b5f815190506123628161182a565b92915050565b5f6020828403121561237d5761237c611704565b5b5f61238a84828501612354565b91505092915050565b5f60a0820190506123a65f830188611e9f565b6123b36020830187611e9f565b81810360408301526123c58186611e23565b905081810360608301526123d98185611e23565b905081810360808301526123ed81846122c4565b9050969550505050505056fea2646970667358221220f728910e1c6de5c478aa699e937eeb73fa9332e5dd9e569803bc601b25cd13dc64736f6c63430008140033",
  "immutableReferences": {},
  "source": "// SPDX-License-Identifier: MIT\r\npragma solidity ^0.8.0;\r\n\r\nimport \"@openzeppelin/contracts/token/ERC1155/ERC1155.sol\";\r\nimport \"@openzeppelin/contracts/access/Ownable.sol\";\r\n\r\ncontract MyERC1155 is ERC1155, Ownable {\r\n    uint256 public constant ITEM1 = 1;\r\n    uint256 public constant ITEM2 = 2;\r\n\r\n    constructor() ERC1155(\"\") Ownable(msg.sender) {}\r\n\r\n    function mint(address account, uint256 id, uint256 amount) public onlyOwner {\r\n        _mint(account, id, amount, \"\");\r\n    }\r\n\r\n    function mintBatch(address account, uint256[] memory ids, uint256[] memory amounts) public onlyOwner {\r\n        _mintBatch(account, ids, amounts, \"\");\r\n    }\r\n}",
  "sourcePath": "C:\\Users\\SSAFY\\Desktop\\second\\S12P21E101\\smart-contract\\contracts\\MyERC1155.sol",
  "compiler": {
    "name": "solc",
    "version": "0.8.20+commit.a1b79de6.Emscripten.clang"
  },
  "schemaVersion": "3.4.10",
  "updatedAt": "2025-03-17T08:45:40.507Z",
  "networkType": "ethereum",
  "devdoc": {
    "errors": {
      "ERC1155InsufficientBalance(address,uint256,uint256,uint256)": [
        {
          "details": "Indicates an error related to the current `balance` of a `sender`. Used in transfers.",
          "params": {
            "balance": "Current balance for the interacting account.",
            "needed": "Minimum amount required to perform a transfer.",
            "sender": "Address whose tokens are being transferred.",
            "tokenId": "Identifier number of a token."
          }
        }
      ],
      "ERC1155InvalidApprover(address)": [
        {
          "details": "Indicates a failure with the `approver` of a token to be approved. Used in approvals.",
          "params": {
            "approver": "Address initiating an approval operation."
          }
        }
      ],
      "ERC1155InvalidArrayLength(uint256,uint256)": [
        {
          "details": "Indicates an array length mismatch between ids and values in a safeBatchTransferFrom operation. Used in batch transfers.",
          "params": {
            "idsLength": "Length of the array of token identifiers",
            "valuesLength": "Length of the array of token amounts"
          }
        }
      ],
      "ERC1155InvalidOperator(address)": [
        {
          "details": "Indicates a failure with the `operator` to be approved. Used in approvals.",
          "params": {
            "operator": "Address that may be allowed to operate on tokens without being their owner."
          }
        }
      ],
      "ERC1155InvalidReceiver(address)": [
        {
          "details": "Indicates a failure with the token `receiver`. Used in transfers.",
          "params": {
            "receiver": "Address to which tokens are being transferred."
          }
        }
      ],
      "ERC1155InvalidSender(address)": [
        {
          "details": "Indicates a failure with the token `sender`. Used in transfers.",
          "params": {
            "sender": "Address whose tokens are being transferred."
          }
        }
      ],
      "ERC1155MissingApprovalForAll(address,address)": [
        {
          "details": "Indicates a failure with the `operator`s approval. Used in transfers.",
          "params": {
            "operator": "Address that may be allowed to operate on tokens without being their owner.",
            "owner": "Address of the current owner of a token."
          }
        }
      ],
      "OwnableInvalidOwner(address)": [
        {
          "details": "The owner is not a valid owner account. (eg. `address(0)`)"
        }
      ],
      "OwnableUnauthorizedAccount(address)": [
        {
          "details": "The caller account is not authorized to perform an operation."
        }
      ]
    },
    "events": {
      "ApprovalForAll(address,address,bool)": {
        "details": "Emitted when `account` grants or revokes permission to `operator` to transfer their tokens, according to `approved`."
      },
      "TransferBatch(address,address,address,uint256[],uint256[])": {
        "details": "Equivalent to multiple {TransferSingle} events, where `operator`, `from` and `to` are the same for all transfers."
      },
      "TransferSingle(address,address,address,uint256,uint256)": {
        "details": "Emitted when `value` amount of tokens of type `id` are transferred from `from` to `to` by `operator`."
      },
      "URI(string,uint256)": {
        "details": "Emitted when the URI for token type `id` changes to `value`, if it is a non-programmatic URI. If an {URI} event was emitted for `id`, the standard https://eips.ethereum.org/EIPS/eip-1155#metadata-extensions[guarantees] that `value` will equal the value returned by {IERC1155MetadataURI-uri}."
      }
    },
    "kind": "dev",
    "methods": {
      "balanceOf(address,uint256)": {
        "details": "See {IERC1155-balanceOf}."
      },
      "balanceOfBatch(address[],uint256[])": {
        "details": "See {IERC1155-balanceOfBatch}. Requirements: - `accounts` and `ids` must have the same length."
      },
      "isApprovedForAll(address,address)": {
        "details": "See {IERC1155-isApprovedForAll}."
      },
      "owner()": {
        "details": "Returns the address of the current owner."
      },
      "renounceOwnership()": {
        "details": "Leaves the contract without owner. It will not be possible to call `onlyOwner` functions. Can only be called by the current owner. NOTE: Renouncing ownership will leave the contract without an owner, thereby disabling any functionality that is only available to the owner."
      },
      "safeBatchTransferFrom(address,address,uint256[],uint256[],bytes)": {
        "details": "See {IERC1155-safeBatchTransferFrom}."
      },
      "safeTransferFrom(address,address,uint256,uint256,bytes)": {
        "details": "See {IERC1155-safeTransferFrom}."
      },
      "setApprovalForAll(address,bool)": {
        "details": "See {IERC1155-setApprovalForAll}."
      },
      "supportsInterface(bytes4)": {
        "details": "See {IERC165-supportsInterface}."
      },
      "transferOwnership(address)": {
        "details": "Transfers ownership of the contract to a new account (`newOwner`). Can only be called by the current owner."
      },
      "uri(uint256)": {
        "details": "See {IERC1155MetadataURI-uri}. This implementation returns the same URI for *all* token types. It relies on the token type ID substitution mechanism https://eips.ethereum.org/EIPS/eip-1155#metadata[defined in the ERC]. Clients calling this function must replace the `\\{id\\}` substring with the actual token type ID."
      }
    },
    "version": 1
  },
  "userdoc": {
    "kind": "user",
    "methods": {},
    "version": 1
  }
}